:020000040800F2
:1000000080080020350200083F3F000899380008AA
:100010003D3F00086D1D00089B45000800000000E2
:100020000000000000000000000000002141000866
:100030006F1D0008000000001F4100085541000826
:100040004F0200084F0200084F0200084F0200084C
:100050004F0200084F0200084F0200084F0200083C
:100060004F0200084F0200084F0200084F0200082C
:100070004F0200084F0200084F0200084F0200081C
:100080004F0200084F0200084F0200084F0200080C
:100090004F0200084F0200084F0200084F020008FC
:1000A0004F020008D54100084F0200084F02000827
:1000B0004F0200084F0200084F0200084F020008DC
:1000C0004F0200084F0200084F0200084F020008CC
:1000D0004F0200084F0200084F0200084F020008BC
:1000E0004F0200084F0200084F02000800F002F81B
:1000F00000F090F80AA090E8000C82448344AAF132
:100100000107DA4501D100F085F8AFF2090EBAE82F
:100110000F0013F0010F18BFFB1A43F0010318473B
:100120002450000044500000103A24BF78C878C121
:10013000FAD8520724BF30C830C144BF04680C60ED
:10014000704700000023002400250026103A28BF35
:1001500078C1FBD8520728BF30C148BF0B60704739
:100160006E2900F0E682702900F03786662904F0D7
:100170002686652904F02386672904F020866129F4
:1001800004F01F8603681B0A28BF41F0800169291B
:1001900000F0C080642900F0BD80752900F0BA80AD
:1001A0006F2900F0C485782900F00386E92900F062
:1001B0005F85E42900F05C85F52900F05985EF2979
:1001C00000F0C185F82900F002860368DB0928BF2A
:1001D00041F08001632901F01D80732901F0228024
:1001E000E32901F02D80F32901F0328000207047CF
:1001F0001FB500F0FDFD04000020002104F088FA86
:10020000401C60600020002104F06CFAE0601FBD1B
:1002100010B510BD01F0B6F81146FFF7E9FF04F084
:10022000E9F901F0DDF803B4FFF7F2FF03BC01F0D8
:1002300021F900000948804709480047FEE7FEE72A
:10024000FEE7FEE7FEE7FEE7FEE7FEE7FEE7FEE786
:1002500004480549054A064B70470000D141000893
:10026000ED000008800200208008002080040020AB
:10027000800400201CB50C46064B7B446946009068
:10028000204600F07EFC04460020694600F08CFC0D
:1002900020461CBD2B0900000FB41CB5084B06AA54
:1002A0007B4469460090059800F06BFC04460020F2
:1002B000694600F079FC20461CBC5DF814FB000088
:1002C0000509000070B5044685690068C10601D5BE
:1002D000302600E02026C00707D070BDD4E90121F8
:1002E00030469047206A401C20626D1EF6D570BDD6
:1002F00070B5044685690078C00707D170BDD4E9A0
:10030000012120209047206A401C20626D1EF6D5F6
:1003100070BD00002DE9F0410646002410687529E3
:10032000314616A510D000F070F9002802DA4042DC
:1003300013A507E031688A0701D512A502E0490735
:1003400004D511A5012401E000F068F900210A227A
:1003500006F1240709E0B0FBF2FCB0FBF2F302FB6C
:100360001C00303078541846491C0028F3D123462D
:100370002A463046BDE8F04100F082B90000000096
:100380002D0000002B000000200000002DE9F05F90
:10039000894604464FF0000ADFF874B1FB44C0F808
:1003A00020A02046E1688847002874D0252806D080
:1003B000D4E901219047206A401C2062F1E7002621
:1003C0005F462046E16888472028054607DB312D37
:1003D00005D2781910F8200C08B10643F1E7B007F0
:1003E00001D526F00406C4F81CA00027C4F818A004
:1003F0002A2D09D0284604F0F5F838B304EB870815
:10040000303DC8F8185019E059F8041B204604EB99
:1004100087029161E1688847012F054618D1E0699C
:10042000002820DA26F020061DE0D8F8180000EB9E
:10043000800005EB40003038C8F818002046E1681D
:100440008847054604F0CEF80028EED1012F0AD0E7
:100450002E2D08D12046E16888477F1C0546022FD3
:1004600046F02006C4DBA069002803DA404246F0CB
:100470000106A061F00701D026F010066C2D0BD00C
:10048000682D09D04C2D39D06A2D35D0742D35D03A
:100490007A2D33D016E038E0E1682F4620468847B1
:1004A000B842054609D16C2F26D04FF48060E16830
:1004B000064320468847054604E06C2F1AD04FF4C7
:1004C000807006430DB3A5F14100192802D82035EC
:1004D00046F400664A462946204626604E46FFF707
:1004E0003FFE80B101280BD0F61D26F0070000F179
:1004F000080956E74020E4E78020D8E70020D6E747
:1005000006F104094DE7284652E7206ABDE8F09F4E
:10051000A64C000010B5431C02E010F8011B71B19D
:100520008107FAD14FF0013202C88C1A8C4314EAC9
:10053000C211F9D0C01A0A0603D0C01E10BDC01ADD
:1005400010BD0A0401D0801E10BD0902FCD0401E5F
:1005500010BD10B5203AC0F00B80B1E81850203A19
:10056000A0E81850B1E81850A0E81850BFF4F5AF53
:100570005FEA027C24BFB1E81850A0E8185044BFDD
:1005800018C918C0BDE810405FEA827C24BF51F84A
:10059000043B40F8043B08BF7047D20728BF31F83E
:1005A000023B48BF11F8012B28BF20F8023B48BF8F
:1005B00000F8012B70474FF0000200B51346944637
:1005C0009646203922BFA0E80C50A0E80C50B1F1AB
:1005D0002001BFF4F7AF090728BFA0E80C5048BFBF
:1005E0000CC05DF804EB890028BF40F8042B08BF5D
:1005F000704748BF20F8022B11F0804F18BF00F859
:10060000012B704770477047704709684A0501D54C
:1006100040B27047C905FCD500B2704709684A0569
:1006200001D5C0B27047C905FCD580B2704770B51E
:100630000C460546012A05D02878800600D5EA69CF
:10064000002302E0012305E05B1C934202D2E05C40
:100650000028F9D1A869E618C01AA861286A1844C8
:1006600028622846FFF72EFE04E0D5E9012114F8A0
:10067000010B9047B442F8D32846FFF739FE70BD0E
:100680002DE9F0470D4699469246044600F12408AC
:100690000168880604D5E06921F01001216000E0BE
:1006A0000120A84201DD471B00E00027A1697A195B
:1006B00002EB0900081AA0612078C00602D4204687
:1006C000FFF700FE002608E0D4E901211AF8060031
:1006D0009047206A401C761C20624E45F4DB20784F
:1006E000C0060AD52046FFF7EDFD06E0D4E901215A
:1006F00030209047206A401C2062381EA7F1010775
:10070000F4DC07E0D4E9012118F805009047206ADD
:10071000401C2062281EA5F10105F3DC2046FFF7EE
:10072000E7FD2078000602D50220BDE8F087012011
:10073000FBE711680268006A530501D508700AE0FA
:10074000D30501D5088006E0130603D5C217C1E919
:10075000000200E008600120704770472DE9FF4F5C
:100760000C461E464FF0FF378BB0D2E90001DDF892
:1007700060800A908A46C1F30A5505B93D460021BA
:1007800008464FF00000BAF1000F00F4400005DA0F
:1007900000EB80004FF4400101EA50004FEA90590D
:1007A000B9F1010F00DDB9460A9850EA4A000ED0AF
:1007B00044F61050A5F2FF3545432F14B8F1000F51
:1007C0001ED07542291E1EDDC9F100021CE0B8F1E1
:1007D000010F4FF0000001D0302103E0F24305E0AB
:1007E0002154401CB042FBDB304600220021215442
:1007F0000B99C1F80880C1E900200FB0BDE8F08F67
:10080000BD1B6D1CDEE74A4600DA694206A800F00F
:1008100023FD06AB93E8070003AB83E807005046CF
:100820000A9900F02EFE8DE80700A0F500501F3851
:1008300000900398002D0ADD42F21F014A46084449
:10084000002303A90390684601F097F809E0A0F59A
:1008500000504A461F38002303A90390684601F060
:10086000A1F88DE807000004000C03D04FF0FF3022
:10087000410800E01046B8F1000F03D000220092BA
:1008800015461EE0751E05D400F0B6FA30326255EA
:100890006D1EF9D5B3460122084302D000227F1C09
:1008A00004E02078302801D100227F1E002A099719
:1008B00084D01DE0112D07DA00F09EFA3032625527
:1008C0006D1C50EA0102F5D1084302D00098C8B16E
:1008D0000EE00021681E05E0235C625C6354225434
:1008E000401E491C8142F7DBAB46A81B401E099005
:1008F000002004F80B000B98099AC0F80880C0E9A2
:10090000002B7AE711264FF0000857E72DE9F04F4A
:1009100088460446D21D22F0070191B0D1E90001BA
:10092000CDE90A0103F03AFE02460B98C00F01D050
:100930002D2007E02068810701D52B2002E020212F
:1009400001EAC000032A099001D0072A05DB03460B
:100950004146204600F014FC0BE12078800601D5CA
:10096000E06900E00620B8F1650F814606D0B8F1D5
:10097000660F18D0B8F1670F70D131E00020B9F1DF
:10098000110F009001DB112301E009F101030AAA14
:1009900001A90CA8FFF7E2FEDDE90C70002609F1C1
:1009A0000105834647E001204B4600904FF0004789
:1009B0000AAA01A90CA8FFF7D1FEDDE90DB00C9938
:1009C0005D46002610B909F101000D18B9EB0500CC
:1009D00003D4C0F1FF3609F10105A5EB09002BE0B6
:1009E000B9F1010F01DA4FF001090020B9F1110F3F
:1009F0000090484601DD112300E003460AAA01A940
:100A00000CA8FFF7ABFEDDE90C704D4600268346CF
:100A1000207800070AD4AB4500DA5D4601A8012D15
:100A200004DD411911F8011C302907D04F4502DAC5
:100A300017F1040F04DA012082460FE06D1EEEE785
:100A4000002F02DCED1B3E4403E0781CA84200DDD1
:100A50007D1CB81B00F1010A4FF000472078000709
:100A600003D4AA4501DB4FF0FF3A0021B7F1004F54
:100A70000DF143088DF8431024D002202B23002FC2
:100A800001DA7F422D230A21021EA0F1010000DCC1
:100A90005FB197FBF1FC97FBF1F201FB1C7C174661
:100AA0000CF1300C08F801CDEEE7A8F1010003705D
:100AB0002188090501D5452100E06521A0F1010843
:100AC00000F8011C09980FA9A1EB0807FF1D00B150
:100AD0000120411901EBEA70A1693844081A401E4F
:100AE000A0612078C00602D42046FFF7EBFB0998EE
:100AF00028B1D4E901219047206A401C2062207867
:100B0000C00622D52046FFF7DDFB1EE0002E04DBE9
:100B1000B34502DD01A8805D00E03020D4E9012169
:100B20009047206A401C2062761CAAF101005FEA0F
:100B3000000A0AD100F05CF9C0680168405CD4E9A1
:100B400001219047206A401C2062281EA5F1010562
:100B5000DCDC07E0D4E9012118F8010B9047206A9A
:100B6000401C2062381EA7F10107F3DC2046FFF786
:100B7000BFFB032011B041E601694A1C02610878FD
:100B8000704700B58FB0CDE90131002105910549CD
:100B90007944CDE9031011466846FFF7F7FB0FB023
:100BA00000BD0000E5FFFFFF0A6802F8010B0A60C4
:100BB000704700002DE9FF5F15468A460446DFF8BE
:100BC000AC80F8440027D8E900103E46CDE900107B
:100BD00010E03AF816106A4602A800F0AFFB411C7C
:100BE00007D02178890603D5E269391891420DD8DA
:100BF0000744761C2078800602D5E069B84205DDFE
:100C0000AE42E6DB3AF816000028E2D1A069C01B2C
:100C1000A0612046FFF756FBD8E90010CDE900108F
:100C2000002017E03AF818106A4602A800F086FB88
:100C3000B0F1FF3F81460BD000250DF1080B05E018
:100C4000D4E901211BF8050090476D1C4D45F7D3F1
:100C500008F10100B0428046E4DB206A384420629B
:100C60002046FFF745FBBDE8FF9F000092440000CF
:100C70002DE9F0418046D21D22F007020025D2E97D
:100C80000002F52915A614D0011E72F1000106DA42
:100C90000023D0EB030063EB020211A608E0D8F8B2
:100CA00000108B0701D50FA602E0490701D50EA65B
:100CB00001251146002408F1240704E000F09CF807
:100CC00030323A55641C50EA0102F7D12B463246C5
:100CD00021464046BDE8F041FFF7D2BC00000000CD
:100CE0002D0000002B0000002000000030B4002187
:100CF00000F1240408E002F00705D208303542EA8A
:100D00004372DB086554491C52EA0305F3D10468B9
:100D1000002310A2250707D5A40600D421B1C46979
:100D200001230DA2641EC46130BCFFF7A9BC10B53D
:100D3000044621461068FFF771FC02462046BDE8D4
:100D400010400023D2E7D21D22F00701D1E9002391
:100D5000CCE700000000000030000000F0B40D46B9
:100D60000188090502D5214C7C4402E01F4C7C44DB
:100D70000E34002100F1240608E002F00F071209EA
:100D8000E75D42EA03721B097754491C52EA0307E4
:100D9000F3D102780023120704D5702D06D009B1D3
:100DA000022311342246F0BCFFF76ABC0123103441
:100DB000F8E770B504460D4621461068FFF72EFC93
:100DC000024629462046BDE870400023C6E7D21DF2
:100DD00022F00703D3E90023C0E70368126843F059
:100DE000200303600823C3610023B7E7F442000037
:100DF000004870473C02002030B5B0F10A024FEACB
:100E0000900E71F100034EEA817EB0EB0E0061EBB3
:100E100091014FEA101E4EEA017E10EB0E0041EBED
:100E200011114FEA102E4EEA016E10EB0E0041EB4D
:100E300011214FEA104E4EEA014E10EB0E0041EB2D
:100E40001141401841F100014FEAD00040EA4170E1
:100E50004FEAD10110EB80054FEA810444EA907417
:100E600044EB01046D1944EB0404521BA3414FF001
:100E7000000348BF0A3200D530BD401C41F10001DB
:100E800030BD00002DE9F04F04460D46D21D22F082
:100E9000070089B0D0E900974846394603F07EFB49
:100EA0000246F80F01D02D2307E02068810701D505
:100EB0002B2302E0202101EAC0038DF820300BB182
:100EC000012000E00020032A824601D0072A04DB2B
:100ED0002946204600F054F93FE12078800601D4ED
:100EE0000D2500E0E569C7F30A560D2D49DA00210A
:100EF0004FEA175B08464FF00000002F00F4400057
:100F000007DA00EB80004FF4400100EBD07001EAFB
:100F100060008115012901DD4FF0FF3100224FEA09
:100F2000850CBCF1180F06D31346ACF118004FF036
:100F30008052C24003E04FF4801323FA0CF30CF10B
:100F40000C0CBCF1200F04D3ACF1200C09FA0CF00E
:100F500001E007FA0CF000294FF0004801DD18B954
:100F60000FE00ED140450CD319EB02095F4121B9C6
:100F7000404502D19F4329EA0209BBEB175F00D02D
:100F8000761C2088000502D57B48784402E07A4828
:100F90007844193808AA302302F80A30037C0AF191
:100FA0000101002E0AF1020A53546A4602DC4FF096
:100FB000300101E04FF031014FF001088DF80010D1
:100FC00002D0A6F2FF3603E059EA470100D06B4E8B
:100FD000002D02DC2178090704D54FF002082E21EC
:100FE0008DF80110C44600210BE0C7F303433F0115
:100FF000C35C491C6D1E02F80830052908F1010880
:1010000001DA002DF1DC00210CE000EB1973491C22
:101010001B786D1E082902F808304FEA091908F1FB
:10102000010801DA002DF0DC21688B0602D516E0FC
:10103000A8F10108E04505DD02EB080313F8013CC7
:10104000302BF5D0B8F1000F09DD02EB080313F8DF
:10105000013C2E2B03D1090701D4A8F10108002D72
:1010600005DD3E2102F808106D1E08F10108407CE4
:10107000002E02F8080008F1010804DA2D2076425B
:1010800002F8080002E02B2002F808000A214FF4C1
:101090007A70864208F101080BDB96FBF0F33033DF
:1010A00002F8083096FBF0F308F1010800FB136624
:1010B00001E0642E0CDB642096FBF0F3303302F881
:1010C000083096FBF0F308F1010800FB136601E01D
:1010D0000A2E06DB96FBF1F0303002F8080008F12A
:1010E000010896FBF1F001FB1060303002F80800B7
:1010F000A16908F1010808EB050202EB0A00081AD1
:10110000A0612078C00602D42046FFF7DBF8216AF0
:1011100008AE01EB0A00206204E0D4E9012116F8D0
:10112000010B9047BAF1010AF7D22078C00602D528
:101130002046FFF7C7F86E4609E016F8010B3E2877
:101140000FD0D4E901219047206A401C2062B8F1F9
:101150000108F2D22046FFF7CBF809B00320BDE822
:10116000F08F206A2844206203E0D4E90121302076
:1011700090476D1EEBD3F8E70D41000002FCFFFF26
:101180002DE9F0411F46044603260168072A01F4B1
:10119000006004DB08B116A505E016A503E008B160
:1011A00015A500E015A521F010002060A069C01E63
:1011B000A0610FB1401EA0612046FFF783F84FB138
:1011C000D4E9012138469047206A401C2062C01CA7
:1011D000206206E0206AFAE7D4E9012115F8010B44
:1011E0009047761EF8D22046FFF782F8BDE8F081DE
:1011F0004E414E006E616E00494E4600696E6600BB
:1012000010B5436913B1AFF3008001E0FFF70FFAA7
:10121000012010BD127800F124010A7000224A70EA
:101220000122EDE711684FF0FF32E9E710B543699D
:1012300013B1AFF3008001E0FFF7BCFC012010BD4B
:10124000128800F1240182840022C2840122EDE789
:1012500011684FF0FF32E9E72DE9F0478146164665
:101260008AB0354878440DC88DE80D00324878447E
:10127000801C03AC0DC884E80D0041F69B30084487
:10128000372190FBF1F290FBF1F5A5F1800501FB10
:1012900012041B3C02D56442012000E00020DFF86C
:1012A00098A080460027FA44AAF1BE0A0EE0E007A3
:1012B0000AD03246684607EB470101230AEB810159
:1012C00000F070FB8DE8070064107F1C002CEED14D
:1012D000194F7F44AE3F19E0E80715D007EB041023
:1012E0000DF1180A90E80E008AE80E00C068F0427E
:1012F00001D1981908903246012306A903A800F0ED
:1013000051FB03AB83E807006D10641C002DE3D193
:101310004FF0010332466946B8F1000F03A802D02E
:1013200000F02BFB01E000F03DFBC9E90001C9F82A
:1013300008200AB0BDE8F087C43E000070B516462C
:101340000C46054600F044F8036893F801010128B3
:1013500006D0FF2C0FD8185D68B101202C7070BD2D
:10136000D3F807013246214603F207130344284607
:10137000BDE8704018474FF0FF3070BD004870471F
:101380001C0200207546FFF7F9FFAE4605006946CE
:10139000534620F00700854618B020B5FEF758FFE9
:1013A000BDE820404FF000064FF000074FF0000866
:1013B0004FF0000B21F00701AC46ACE8C009ACE8E7
:1013C000C009ACE8C009ACE8C0098D467047000010
:1013D00010B5FFF70DFD001D10BD00BF3533000037
:1013E00010B50446AFF300802046BDE81040FEF77C
:1013F0001ABF00004FF0013C50F8042B51F8043B99
:101400009A4221D1A2EB0C03934313EACC1317D1D8
:1014100050F8042B51F8043B9A4215D1A2EB0C036F
:10142000934313EACC130BD150F8042B51F8043B2F
:101430009A4209D1A2EB0C03934313EACC13DBD0FD
:101440004FF00000704700BFD01A01BAB1FA81F125
:1014500001F0180122FA01F0CB40C1F12001DBB20A
:10146000C0B2C01A2CFA01F3D11A914311EAC31188
:10147000E6D1704701491820ABBEFEE72600020006
:1014800070475FEA400C08BF91F0000F4FEA8C23D1
:101490004FEAC12243EA51514FEA1C5018BF00F5F0
:1014A000F0404FEA300018BF41F000415FEA6C5C49
:1014B00000F02980BCF1FF3F08BF40F0804070473A
:1014C000130C06BF12044FF0100C4FF0000C130E5B
:1014D00004BF12020CF1080C130F04BF12010CF12F
:1014E000040C930F04BF92000CF1020CD30F04BF45
:1014F00052000CF1010C11464FF00002A0F11F0048
:10150000A0EB0C00704711F0004F08BF704731F09E
:1015100000413FF4D5AF0B0C06BF09044FF0100C8F
:101520004FF0000C0B0E04BF09020CF1080C0B0F5E
:1015300004BF09010CF1040C8B0F04BF89000CF1EE
:10154000020CCB0F04BF49000CF1010CCCF12003BD
:10155000A0EB0C0022FA03F302FA0CF241EA0301B9
:1015600000F10100704720F07F4C80EA030023F077
:101570007F47ACEB070303F57C5300F0004003F119
:10158000FF032DE980494FEA154B09B44FEA144394
:1015900025EA0B4E24EA03480FF2042606EB132734
:1015A00049083E785FEA320203FB0667C7F5000789
:1015B00007FB06F64FEA54374FEAD64606F1020615
:1015C00007FB066CCCF1005C4FEA1C472CEA074C89
:1015D00007FB06F40CFB06F504EB15464FEA9616DE
:1015E00034BF00204FF000404FEAD13706FB07FC24
:1015F0004FEA1C4C0CFB0BF7D21B03FB0CF761EB07
:1016000007010CFB0EF7B0EB074072EB17420CFB27
:1016100008F734BFA2EB0742B2EB074261EB174178
:101620004FEA0C444FEA910706FB07FC4FEA1C4CBB
:101630000CFB0BF7B0EBC74072EB573203FB0CF718
:1016400034BFA2EBC742B2EBC74261EB57310CFB90
:101650000EF7B0EBC70072EB57720CFB08F734BF04
:10166000A2EBC702B2EBC70261EB5771039F4FEACF
:10167000816141EA921104EBCC044FEAD1374FEA81
:10168000826206FB07FC42EA90124FEA80604FEA52
:101690001C4C0CFB0BF7D21B03FB0CF761EB070197
:1016A0000CFB0EF7B0EB074072EB17420CFB08F790
:1016B00034BFA2EB0742B2EB074261EB17414FEA9E
:1016C0008C554FEA910704EB9C2406FB07FC4FEA7C
:1016D0001C4C0CFB0BF7B0EBC74072EB573203FB13
:1016E0000CF734BFA2EBC742B2EBC74261EB5731F4
:1016F0000CFB0EF7B0EBC70072EB57720CFB08F750
:1017000034BFA2EBC702B2EBC70261EB577115EB16
:101710004C254FEA816141EA92114FEA82624FEA19
:10172000D13742EA901206FB07FC44F100044FEA6D
:1017300080604FEA1C4C0CFB0BF7D21B03FB0CF731
:1017400061EB07010CFB0EF7B0EB074072EB1742A1
:101750000CFB08F734BFA2EB0742B2EB074261EB88
:10176000174115EB1C154FEA813141EA92414FEACE
:10177000823242EA90424FEA80304FEA0C7644F1DE
:10178000000448EA03434EEA0B484FF0000EB2EB68
:10179000080C71EB030724BF624639464EEB0E0E70
:1017A0004FF0000B0018524149414BEB0B0BB2EBD1
:1017B000080C71EB03077BF1000B24BF624639462E
:1017C0004EEB0E0E4FF0000B0018524149414BEB0F
:1017D0000B0BB2EB080C71EB03077BF1000B24BF82
:1017E000624639464EEB0E0E51EA020718BF46F02C
:1017F000010616EB0E7655F1000254F1000103D5F7
:10180000BDE88901BDE80088BDE88901BDE8004860
:10181000B619524141EB0101A3F1010370478080E9
:101820007F7E7D7C7B7A797877767675747372713A
:1018300071706F6E6E6D6C6C6B6A6A6968686766F2
:1018400066656464636362616160605F5F5E5E5D84
:101850005D5C5C5B5B5A5A595958585757565655F8
:1018600055555454535352525251515050504F4F5A
:101870004F4E4E4D4D4D4C4C4C4B4B4B4A4A4A49AA
:1018800049494848484747474746464645454544ED
:101890004444444343434342424242414141002B7A
:1018A0009C4630D477002BD01CB54FEA370703B4E1
:1018B0004FF010004FF01001BAF1000F06D0BCF14C
:1018C000000FDCBF40F0080040F008014FF00000BE
:1018D0000FBCBDE810400BF1010BBBF1010F08BFBD
:1018E0005FEA170722BF12F1010211F101014FF067
:1018F000004143F1000300F0004043EA000070475C
:10190000F9D35708D0E746EA064613F1400F4FEAED
:1019100016461FDD13F1200FDFBF16430A460021D4
:1019200020335B42BED0C3F1200746EA064602FAE6
:1019300007F74FEA164646EA0706C3F1200722FAE0
:1019400003F201FA07F721FA03F14FF0000342EA2C
:101950000702A7E746EA020646EA06464FEA1646A7
:1019600046EA0106BCBF46EA0646360C4FF00003C5
:101970004FF000024FF0000194E72DE9804C9A46A9
:10198000934670B491E8380007C831EA400C48BF6C
:1019900034EA430C03D5FFF7E6FDFFF780FFF0BC08
:1019A000BDE8008C2DE9804C9A46934670B491E8CE
:1019B000380007C810F0804F08BF13F0804F03D1E4
:1019C00000F005F8FFF76BFFF0BCBDE8008C20F0DD
:1019D0007F4780EA030023F07F4C07EB0C03A3F55D
:1019E0007C5300F00040A3F1FE0392F0000F00F0E2
:1019F000B38095F0000F00F077802DE901494FEAA0
:101A000011404FEA144621EA004800FB06FC24EA94
:101A1000064708FB06F607FB08F800FB07F718EB7C
:101A200006484CEB164C4FEA124B18EB07484FEAAE
:101A300015464CEB174022EA0B4E0BFB06FC25EA41
:101A400006470EFB06F607FB0EFE0BFB07F71EEB29
:101A5000064E4CEB164C4FF000061EEB074E4CEBBF
:101A6000174B18EB0B0840F1000018EB0E0B58EB6E
:101A7000000840F100008F1A4FF000013CBFC9433D
:101A8000661B14BFB5EB040C00213CBFC943F61B19
:101A90004FEA17444EEA8E0E27EA04454FEA1C47E8
:101AA00004FB07622CEA074C05FB07F70CFB05F665
:101AB00004FB0CFC16EB074642EB174216EB0C46F8
:101AC00042EB1C421BEB060658EB0202414146EA80
:101AD0009E0601D5BDE80189B619524141EB0101CD
:101AE000A3F10103BDE801894FEA14454FEA11470C
:101AF00024EA054621EA074C05FB07F406FB07F735
:101B00000CFB06F105FB0CFC11EB074144EB174401
:101B10004FEA124711EB0C4144EB1C4422EA074CFC
:101B200005FB07F206FB07F70CFB06F605FB0CFCB2
:101B300016EB074642EB174216EB0C4642EB1C45F0
:101B40006A1854F1000148BF7047B619524141EB81
:101B50000101A3F10103704795F0000F37D04FEA60
:101B600011424FEA144721EA024624EA074C02FBDD
:101B700007F106FB07F70CFB06F402FB0CFC14EB69
:101B8000074441EB17414FEA154714EB0C4441EB76
:101B90001C4125EA074C02FB07F506FB07F70CFB87
:101BA00006F602FB0CFC16EB074645EB174516EB59
:101BB0000C4645EB1C42121951F1000148BF704719
:101BC000B619524141EB0101A3F1010370474FEAFD
:101BD00014454FEA114724EA054621EA074C05FB64
:101BE00007F106FB07F70CFB06F24FF0000605FBBA
:101BF0000CFC12EB074241EB174112EB0C4251EB8C
:101C00001C4148BF7047921841EB0101A3F1010349
:101C1000704700000EB5084951F8200000900120DF
:101C20000190052002906946044800F0A3F80028BE
:101C300001D000F09DF80EBD540000206800002087
:101C400070B5044600688168C943C90717D1816827
:101C500021F00101816000F0C9FB05460AE000BFE8
:101C600000F0C4FB401B022804D920688068C043F0
:101C7000C00706D020688068C043C007F0D00020AD
:101C800070BDA06A40F01000A062E06A40F0010060
:101C9000E062012070BD0000F8B500260446009601
:101CA00000688168C943C9072DD0816841F00101EE
:101CB0008160164816490068B0FBF1F000E0401E54
:101CC00000900028FBD100F091FB054616E000BF14
:101CD00000F08CFB401B022810D920688068C043AC
:101CE000C0070BD0A06A40F01000A062E06A40F08C
:101CF0000100E06284F824600120F8BD206880685B
:101D0000C043C007E4D10020F8BD0000300000202F
:101D100040420F0010B5FFF77DFF0A4800F004FABB
:101D20004FF0FF31074800F061F9064800F0A0F8D5
:101D300002F08EFE0022044B02F032FDBDE810409E
:101D400002F0FCBC6800002000FEAF4070B5064DFC
:101D500000242046FFF7DEFF45F82400641CE4B2AF
:101D6000042CF6D370BD00000C020020FEE7704783
:101D700072B6FEE7F8B50024009490F824202546BA
:101D8000012A12D0012280F824204A681F23072A42
:101D90000DD20668776B521E02EB820293409F437E
:101DA0000B6893401F43776319E00220F8BD066873
:101DB0000D2A0AD2376BD21F02EB820293409F4357
:101DC0000B6893401F43376309E0F76A0D3A02EB53
:101DD000820293409F430B6893401F43F7620A6857
:101DE000072306680A2A0AD3F7680A3A02EB420276
:101DF00093409F438B6893401F43F76008E0376927
:101E000002EB420293409F438B6893401F4337612C
:101E10000A68102A01D0112A20D1124B02689A4276
:101E200017D193681B0219D4936843F4000393609D
:101E30000968102912D10C490C4A0968B1FBF2F16A
:101E400001EB8101490000E0491E00910029FBD10E
:101E500004E0816A41F020018162012480F824506D
:101E60002046F8BD002401403000002040420F0011
:101E70000068C06C704700002DE9F0414FF000078A
:101E800004003D467ED0A06A002628B9E66284F8A8
:101E90002460204600F07EF82046FFF7D1FEA16ABC
:101EA000C90600D420B1A06A40F01000A06269E029
:101EB000A16A21F4885141F00201A1626268E169DE
:101EC000237B0A4347EA43010A43A1684FF4807722
:101ED000B94209D0012907D05FF0000194F814C07D
:101EE000BCF1010F02D00AE03946F7E7F3B1A36A6B
:101EF00043F02003A362E36A43F00103E362236833
:101F0000D3F804C02CF4694C4CEA010CC3F804C0AB
:101F100021688B68DFF870C003EA0C0313438B6001
:101F2000A168B9420BD0012909D00CE0DFF85CC0F0
:101F3000A3690CEB43330B4343F40061DFE7218AD1
:101F40000D05A5F580152168CB6A23F470032B439A
:101F5000CB62216889680E4B1940914208D1E66234
:101F6000A16A21F0020141F00101A162BDE8F08106
:101F7000A06A20F0020040F01000A062E06A40F089
:101F80000100E0620120F1E7FDF7E1FF00E0FFFF63
:101F9000FE0E1FFF00B585B0002100910191029156
:101FA000039100680E49884218D10E48816941F4B6
:101FB00080618161816901F480610491816941F0EE
:101FC000040181618069694600F0040004903C20AE
:101FD000009003200190044800F006F905B000BD10
:101FE0000028014000100240000801402DE9F8439C
:101FF00000270D460446009700F0F8F98046206857
:102000008168C90508D5A06A40F02000A06284F864
:1020100024700120BDE8F8834168C90503D4C06A73
:1020200010F4700F2AD0022000F010FC3B49096820
:10203000B1FBF0F62068036939490B424FEA6101B0
:102040004FEAA1121FD1C3684FEA611C13EA0C0FBB
:1020500019D103690B4225D1C068104222D1142046
:1020600023E0681C0AD02DB100F0C0F9A0EB0800F5
:10207000A84203D920680068800725D52068006839
:102080008007EED52DE003690B4202D1C1681142F1
:1020900006D0026923490A4206D1C068084203D12A
:1020A000542002E0292000E0FC204643009816E07E
:1020B000681C11D02DB100F099F9A0EB0800A842DE
:1020C0000AD90098B04207D2A06A40F00400A0628A
:1020D00084F8247003209DE70098401C0090B042D3
:1020E000E6D321686FF012000860A06A40F4007027
:1020F000A06220688068C0F3424007280CD1207B92
:1021000050B9A06A20F48070A062A06AC00403D411
:10211000A06A40F00100A06200207BE730000020B0
:10212000244992244992240070B5044690F8240072
:1021300001280DD0012084F824002046FFF7ACFDD3
:1021400002004FF0000005D084F82400104670BD56
:10215000022070BDA16A40F20123994341F48071CD
:10216000A1621F4D23681F49AB4218D10E6816F4B7
:10217000702F14D0A66A46F48016A6620E68760503
:1021800005D5A66A26F4005646F48056A662A66ACD
:10219000F6040AD5E66A26F00606E66206E0A66AB6
:1021A00026F48016A6625E68E9E7E06284F82400FF
:1021B0006FF00200186020688368C3F34243072B66
:1021C00005D1A84208D1096811F4702F04D08168A4
:1021D00041F480118160B9E7816841F4A001F9E719
:1021E00000280140042401402DE9F84FDFF8B891A0
:1021F0000024A9F1040B23460F2709F1040AABF1CF
:10220000040EC9E00125A5402A40AA427DD1674EAF
:10221000D1F804C0ACEB0608B44532D014DCBCF1F4
:10222000030F3AD009DCBCF1000F2AD0BCF1010F3A
:102230001CD0BCF1020F31D11DE0BCF1110F17D041
:10224000BCF1120F2AD119E0B8F5881F19D006DCAD
:10225000B8F5803F15D0B8F5801F1FD111E0B8F553
:10226000001F0ED0B8F5041F18D10AE0CB6815E0A6
:10227000CB681B1D12E0CB6808330FE0CB680C3332
:102280000CE08B682BB1012B4FF0080303D04561A4
:1022900004E0042302E0056100E00023FF2A01D8E6
:1022A000064601E000F104064FEA840501D9A5F1D4
:1022B0002005D6F8008007FA05FC28EA0C0803FA86
:1022C00005F548EA0508C6F800804D68ED0062D5BE
:1022D000374DAE6946F00106AE61AD6924F00306E4
:1022E00005F001050095334D06EB050CDCF80850B0
:1022F000A607360F07FA06F825EA0805DFF8B880C2
:10230000404503D14FF0000817E044E0DFF8AC800F
:10231000404502D14FF001080FE0DFF8A4804045AE
:1023200002D14FF0020808E0DFF89880404502D162
:102330004FF0030801E04FF0040808FA06F848EAF5
:102340000508CCF808804D68D9F80060ED024D46CC
:1023500001D5164300E096432E604D68DAF8006020
:10236000AD02554601D5164300E096432E604D68F8
:10237000DBF80060AD035D4601D5164300E09643EF
:102380002E604D68DEF80060ED03754601D51643FA
:1023900000E096432E60641C0D682A46E5407FF4F9
:1023A00031AFBDE8F88F00000804014000001110B3
:1023B000001002400000014000080140000C0140F4
:1023C00000100140001401408068084000D0012046
:1023D0007047C26821EA02030A4043EA02410161F0
:1023E00070470AB1016170470904FBE70148806842
:1023F000704700002400002070B5040025D094F838
:102400003D00002520B984F83C50204600F04EF9EC
:10241000242084F83D002068016821F0010101605A
:102420002068016841F4004101602068016821F4DE
:102430000041016000F068FB4D4A6168914201D89B
:102440004C4900E04C49884201D2012070BD4B4903
:102450002368B0FBF1F15E6826F03F060E435E6034
:102460006368934206D94FF4967359434FF47A73D5
:10247000B1FBF3F12368491C1E6A26F03F06314385
:1024800019626168914210D84900401EB0FBF1F218
:10249000521CC2F30B02042A01D2042022E0B0FB3A
:1024A000F1F0401CC0F30B001CE0A268F2B301EB9A
:1024B000C10303EB0116431EB3FBF6F35B1C43F4AD
:1024C00080431B0549D092B301EBC10202EB01111D
:1024D000401EB0FBF1F0401CC0F30B0040F4804004
:1024E00040F400402168CA694CF6FF739A431043D8
:1024F000C861D4E9071001432068026822F0C002D5
:1025000011430160D4E9030101432068826848F265
:10251000FF339A4311438160D4E9050108432168E0
:10252000CA6822F0FF021043C86001E00EE016E026
:102530002068016841F0010101602564202084F8D1
:102540003D00256384F83E50002070BD01EB41063C
:10255000431EB3FBF6F35B1CB3E70120C2E701EBBC
:102560004101401EB0FBF1F0401CC0F30B00B7E787
:10257000A086010080841E0000093D0040420F003B
:102580002DE9F84F1F4690468A460446DDF828900C
:10259000FFF72CFF054694F83D0020287FD1192332
:1025A000012240492046009501F008FA002876D122
:1025B00094F83C00012872D0012084F83C00206887
:1025C0000168C90703D1016841F001010160206879
:1025D000016821F400610160212084F83D00102091
:1025E00084F83E0000262664C4F824806785608D48
:1025F00020852D48E0622B464A465146204601F090
:1026000063F990B9206841698069009036E02A46F4
:102610004946204601F078FA50B1206C042804D1D4
:102620002068016841F4007101600120BDE8F88F65
:10263000606A216800780861606A401C6062618D90
:10264000491E6185218D491E89B221852268536901
:10265000DB435B070BD451B100781061606A401C0A
:102660006062608D401E6085208D401E20852A4658
:102670004946204601F076F90028CED1208D002869
:10268000C5D154F83D0B016841F400710160202070
:1026900004F81E09E67766770020C7E7FFE7022007
:1026A000C4E70000020010000000FFFF10B586B074
:1026B0000021009101910291039100681349884221
:1026C00022D1134CA06940F00800A061A0696946BE
:1026D00000F0080004904FF4407000901220019028
:1026E000032003900B48FFF77FFD0B48416841F042
:1026F000E06141F002014160E06940F40010E061F6
:10270000E06900F40010049006B010BD00540040D1
:1027100000100240000C01400000014002488168A6
:10272000027811448160704724000020074810B5EA
:10273000016841F010010160032000F075F80F20DE
:1027400000F006F800F024F8002010BD0020024040
:1027500070B50D4D04464FF47A712878B1FBF0F056
:102760000A490968B1FBF0F000F0A4FB48B9102C4D
:1027700007D200222146501E00F036F800206C607F
:1027800070BD012070BD000024000020300000203A
:102790000C4808B5816941F001018161816901F04E
:1027A00001010091C16941F08051C161C06900F02F
:1027B000805000900448416821F0E06141F00071D0
:1027C000416008BD0010024000000140002809DB04
:1027D00000F01F02012191404009800000F1E0203B
:1027E000C0F8001170470000F0B40E4B1B680C4697
:1027F000C3F30223C3F10705042D00D90425191DD5
:10280000072901D2002300E0DB1E012606FA05F1AC
:10281000491E214099409E40761E16403143F0BC2F
:1028200001F0D0BE0CED00E0064900F00702086898
:102830004FF6FF03184040EA0220034A10430860A5
:10284000704700000CED00E00000FA0510B50146ED
:102850000020234C012922D0022939D010291DD172
:1028600061682268D20119D51E48C1F38342C903A9
:10287000805C0AD561681B4AC1F34041921E515CDD
:10288000194AB2FBF1F1484301E018494843616835
:10289000490203D440000321B0FBF1F010BD226ACD
:1028A000C2F30121012903D1920701D5C80310BD4C
:1028B000022905D1626A920702D549F6404010BD4F
:1028C0000329FCD121688903F9D54FF2244010BDBA
:1028D00000F02AF96168C1F38131491C4900DBE746
:1028E00000100240DA4D000800127A0000093D0095
:1028F0002DE9F84305460078354CC00754D0E0690F
:102900000026C00008D4E06940F08050E061E06932
:10291000012600F0805000902E480168C90512D4AD
:102920000168804641F480710160FFF75FFD074652
:1029300005E000BFFFF75AFDC01B642823D8D8F874
:102940000000C005F6D5206A10F4407021D0A98897
:1029500001F4407181421CD0206A1F49012220F4F9
:1029600040700A6000220A602062C00711D0FFF7A1
:102970003DFD074641F2883808E000BFFFF736FD0D
:10298000C11B414502D90320BDE8F883206A8007B6
:10299000F4D5206A696820F44070084320621EB1B3
:1029A000E06920F08050E0612878800705D56068F4
:1029B000A96820F44040084360602878C00605D527
:1029C0006068E96820F48000084360600020DBE76D
:1029D0000010024000700040400442422DE9F047E0
:1029E0000F46050061D0434E306800F00700B84242
:1029F00009D2306820F0070038433060306800F0BA
:102A00000700B84251D128683B4C810712D54007D6
:102A100003D5606840F4E06060602878000703D563
:102A2000606840F4605060606068A96820F0F00061
:102A3000084360602878C00728D06868012810D053
:102A40002168022810D0890700292EDA616821F058
:102A5000030101436160FFF7C9FC804641F28839F8
:102A60000DE021688903EFE78901EDE7FFF7BEFC80
:102A7000A0EB0801494502D90320BDE8F087606852
:102A8000696800F00C00B0EB810FEFD1306800F006
:102A90000700B8420BD9306820F007003843306097
:102AA000306800F00700B84201D00120E5E728783F
:102AB000400705D56068E96820F4E060084360607D
:102AC0002878000706D56068296920F4605040EA3C
:102AD000C100606000F038F86168084AC1F3031172
:102AE000515CC8400649086006480068FFF730FEA0
:102AF0000020C2E70020024000100240EA4D00081A
:102B0000300000202800002004480549006849687A
:102B1000044AC1F30221515CC840704730000020D4
:102B200000100240FA4D0008044805490068496851
:102B3000044AC1F3C221515CC840704730000020F4
:102B400000100240FA4D00080E4A51680E4801F08C
:102B50000C03042B11D0082B0FD10C48C1F3834375
:102B6000C903C05C0AD55168084AC1F34041921EAE
:102B7000515C054A5043B0FBF1F0704704494843AB
:102B8000704700000010024000127A00C84D000893
:102B900000093D002DE9F84F040070D02078C04DA9
:102BA000C00749D06868C0F38100012807D0686871
:102BB000C0F38100022809D16868C00306D52868DF
:102BC000800339D560680028E7D035E06068B0F54B
:102BD000803F0BD010B1B0F5A02F11D0286820F4A1
:102BE00080302860286820F4802002E0286840F4C3
:102BF00080302860606890B1FFF7F8FB06460AE075
:102C0000286840F480202860F0E700BFFFF7EEFB63
:102C1000801B642873D828688003F7D50CE0FFF781
:102C2000E5FB064605E000BFFFF7E0FB801B6428DC
:102C3000F0D828688003F7D420789A4E80074FF0A8
:102C400001094FF0000839D5686810F00C0F07D063
:102C50006868C0F38100022809D16868C00306D4FF
:102C60002868800714D52069012808D110E0206960
:102C7000B0B1C6F80090FFF7B9FB074605E00AE1DE
:102C8000FFF7B4FBC01B0228C4D828688007F7D51B
:102C90002868616920F0F80040EAC10028600DE072
:102CA000C6F80080FFF7A2FB074604E0FFF79EFB93
:102CB000C01B022823D828688007F7D42078000793
:102CC0002CD57948A169D9B1C0F80090FFF78EFBE7
:102CD000074604E0FFF78AFBC01B02280FD8686A8A
:102CE0008007F7D571484FF4FA510068B0FBF1F056
:102CF000009000BF0098411E0091FAD20EE080E0E3
:102D0000C0F80080FFF772FB074604E0FFF76EFB98
:102D1000C01B022875D8686A8007F7D4207840075E
:102D200060D5E8690027C00008D4E86940F0805009
:102D3000E861E869012700F0805000905C48016874
:102D4000C90513D40168834641F480710160FFF71F
:102D50004DFB824606E000BFFFF748FBA0EB0A00F0
:102D600064284ED8DBF80000C005F5D5E0680128DE
:102D70000AD008B1052813D0286A20F00100286283
:102D8000286A20F0040002E0286A40F0010028626E
:102D9000E06841F2883B98B1FFF728FB82460BE0E0
:102DA000286A40F004002862EEE700BFFFF71EFB30
:102DB000A0EB0A0159455AD8286A8007F6D50CE0DD
:102DC000FFF714FB824605E0FFF710FBA0EB0A01BA
:102DD00059454CD8286A8007F6D41FB1E86920F01D
:102DE0008050E861E06988B36968C1F38101022914
:102DF00044D00228C6F8608004D0FFF7F7FA0446F2
:102E000038E034E0FFF7F2FA074604E0FFF7EEFAA5
:102E1000C01B02282BD828688001F7D4206AB0F59F
:102E2000803F05D16868A16820F4003008436860DD
:102E3000D4E908010843696821F474110843686003
:102E4000C6F86090FFF7D2FA044606E025E000BF1E
:102E5000FFF7CCFA001B022809D828688001F7D5B3
:102E60001BE000BFFFF7C2FA001B022802D90320B3
:102E7000BDE8F88F28688001F4D40EE00128F7D06F
:102E80006868226A00F48031914204D1616A00F4DA
:102E90007010884201D00120EAE70020E8E7000036
:102EA00000100240000042428004424230000020F4
:102EB0000070004010B5401EB0F1807F01D30120AA
:102EC00010BD4FF0E02460610F21601701F07AFB24
:102ED0000020A06107202061002010BD70477047CE
:102EE00070B590F83C20012A26D0012480F83C409F
:102EF000022280F83D2003685A689D6822F070061F
:102F00000A6832435A600D4B02689A4208D0B2F107
:102F1000804F05D00A4B9A4202D00A4B9A4204D104
:102F2000496825F080031943916080F83D400021F5
:102F300080F83C10084670BD022070BD002C014096
:102F4000000400400008004010B5040003D094F8CD
:102F50003D0010B107E0012010BD002084F83C00C6
:102F6000204600F01FF8022084F83D00211D206853
:102F700001F036F9012084F8460084F83E0084F818
:102F80003F0084F8400084F8410084F8420084F84F
:102F9000430084F8440084F8450084F83D00002094
:102FA00010BD000008B5114A01681148914211D1C5
:102FB000816941F4006181618069002200F4006050
:102FC000009011461920FFF70FFCBDE808401920BA
:102FD000FFF7FCBBB1F1804F07D1C16941F001019E
:102FE000C161C06900F00100009008BD002C0140E3
:102FF0000010024090F83D10012901D001207047D7
:10300000022180F83D100168CA6842F00102CA60DE
:1030100000680B49884208D0B0F1804F05D00949BB
:10302000884202D00849884204D1816801F0070132
:10303000062903D0016841F00101016000207047BA
:10304000002C0140000400400008004070B5044618
:1030500090F83C000025012817D0012684F83C6038
:10306000022084F83D002068826822F0770222F472
:103070007F4282600868502838D00DDC20284FD06D
:1030800005DC90B3102811D14AE0022070BD302831
:1030900046D040280AD13BE060282FD070280DD0C0
:1030A000B0F5805F03D0B0F5005F12D0012584F841
:1030B0003D60002084F83C00284670BDCB68D1E913
:1030C0000121206801F0D5F82068816841F077017E
:1030D00009E0CB68D1E90121206801F0CAF8206835
:1030E000816841F480418160E1E719E0CA6849687C
:1030F000206801F073F95021206806E0CA68496829
:10310000206801F07CF96021206801F0BCF8CEE76E
:10311000CA684968206801F061F940212068F4E735
:10312000226801461046F0E72DE9F0410D46040003
:1031300003D094F83D0018B108E00120BDE8F0810B
:10314000002084F83C00204600F040F8022084F87B
:103150003D002068816844F2070291438160211D8F
:10316000206801F03DF8226890689169166A2B6822
:10317000AF69034340F20330814341EA0721A86865
:10318000EF6908434FF6FC418843E96840EA0720AD
:10319000014328692F6A000140EA07300843696843
:1031A0006D6926F0220646EA0515294393602268D8
:1031B000906154F8460B0162012004F81F09E07584
:1031C0002076E0762077A0750020B7E700B585B0BF
:1031D0000021009101910291039100680D498842FC
:1031E00016D10D48C16941F00201C161C16901F008
:1031F00002010491816941F004018161806969469D
:1032000000F004000490C02000900448FEF7ECFF9A
:1032100005B000BD0004004000100240000801405D
:1032200070B590F83E60044690F83F5090F84230F8
:1032300090F84320022021B104290ED0012E1BD189
:1032400014E0012E18D1012B16D184F83E0084F829
:10325000420001220021206820E0012D0CD1012A2A
:103260000AD184F83F0084F8430014E0012D03D113
:10327000012B01D1012A01D0012070BD84F83E004C
:1032800084F83F0084F8420084F8430001220021C2
:10329000206800F0E1FF01220421206800F0DCFF3B
:1032A0002068016841F001010160002070BD704795
:1032B0002DE9F04104460068C66805694FF0000733
:1032C000A90713D5B10711D5F91E01610120207797
:1032D000206880698007204602D0FFF7E8FF04E0FD
:1032E00000F0A2F8204600F034F92777680716D5D9
:1032F000700714D521686FF0040008610220207760
:103300002068806910F4407F204602D0FFF7CFFF8D
:1033100004E000F089F8204600F01BF92777280721
:1033200015D5300713D521686FF008000861042017
:1033300020772068C0698007204602D0FFF7B7FFDA
:1033400004E000F071F8204600F003F92777E80662
:1033500016D5F00614D521686FF01000086108201A
:1033600020772068C06910F4407F204602D0FFF724
:103370009EFF04E000F058F8204600F0EAF82777B6
:10338000E80708D0F00706D021686FF00100086157
:10339000204600F02DF9280608D5300606D521680C
:1033A0006FF0800008612046FFF798FD680608D599
:1033B000700606D521686FF040000861204600F0D5
:1033C000AFF9A8060AD5B00608D521686FF020002D
:1033D00008612046BDE8F041FFF781BDBDE8F081FE
:1033E00000B585B000210091019102910391006820
:1033F000B0F1804F11D10A48816941F00401816127
:103400008069694600F004000490012000900220C9
:10341000019003900348FEF7E7FE05B000BD0000F1
:103420000010024000080140704770B5044690F853
:103430003C0000260D4601280FD0012084F83C00F6
:103440006AB1042A1DD0082A2FD00C2A3FD00126A9
:10345000002084F83C00304670BD022070BD20681A
:1034600000F01AFF2068816941F00801816120683D
:10347000816921F004018161206881692A69114311
:1034800011E0206800F030FF2068816941F400619C
:1034900081612068816921F480618161206881698E
:1034A0002A6941EA02218161D2E7206800F048FFE1
:1034B0002068C16941F00801C1612068C16921F03B
:1034C0000401C1612068C1692A69114311E02068C3
:1034D00000F062FF2068C16941F40061C1612068A9
:1034E000C16921F48061C1612068C1692A6941EA2A
:1034F0000221C161ACE710B5040003D094F83D008F
:1035000010B107E0012010BD002084F83C002046E7
:1035100000F01EF8022084F83D00211D206800F014
:103520005FFE012084F8460084F83E0084F83F00E6
:1035300084F8400084F8410084F8420084F8430095
:1035400084F8440084F8450084F83D00002010BD54
:103550007047704710B50446022249B104290ED0C5
:10356000082913D094F84100012816D0012010BD7D
:1035700094F83E000128F9D184F83E200FE094F839
:103580003F000128F2D184F83F2008E094F8400081
:103590000128EBD184F8402001E084F84120012289
:1035A000206800F059FE0F492068884203D1426C20
:1035B00042F4004242642068884208D0B0F1804F53
:1035C00005D00949884202D00849884204D181685F
:1035D00001F00701062903D0016841F001010160F3
:1035E000002010BD002C01400004004000080040F5
:1035F0002DE9F04F00683A4987B088426CD1394CC8
:103600006088401C80B26080282865D300F0A8FA4A
:1036100020704FF0000BC8B13030C2B22A21002018
:1036200000F00AFD20783049012804D0022806D095
:1036300003280BD108E0206901F09EFA02E020691E
:1036400001F048FB206101E0C4F810B0FEF77EFBFA
:10365000264D182101202A6800F00EFD2868A06080
:10366000182102206A6800F007FD6868E0601821F0
:103670000320AA6800F000FDA868A06100F0B6FA77
:10368000A08003461AA22421052000F035FD206900
:1036900001F046FACDE9000117A21E21062000F034
:1036A0002BFDE86801F03CFA81468A46206A01F069
:1036B00037FA07468846E06901F032FA05460E46B9
:1036C000606901F02DFA8DE8E00702460B460CA078
:1036D00000F028FDA4F802B007B0BDE8F08F0000AC
:1036E000002C014000000020000020410C020020BE
:1036F00025303364000000002530332E3066000092
:103700002530342E32662C2530342E32662C25306E
:10371000342E32662C2530342E32660D0A0000001D
:10372000704770B5040004D094F84100002510B132
:1037300006E0012070BD84F84050204600F024F8D7
:10374000242084F841002068C16821F40051C16040
:10375000204600F08DFE2068016921F4904101614E
:103760002068416921F02A0141612068C16841F463
:103770000051C1606564202084F8410084F8420053
:103780006563002070BD000030B585B00024009452
:1037900001940294039400681449884224D1144887
:1037A000816941F480418161816901F48041049122
:1037B000816941F00401816180690E4D00F00400CF
:1037C00004904FF4007000900220019003200390B9
:1037D00069462846FEF708FD2815CDE9000469462C
:1037E00028460294FEF700FD05B030BD00380140C8
:1037F00000100240000801402DE9F843044690F80B
:103800004100984616460D46202802D00220BDE809
:10381000F88385B17EB100206064212084F84100E6
:10382000FEF7E4FDA6848146E684A0682027B0F573
:10383000805F02D003E00120E9E7206910B12E4645
:1038400000250EE000260CE08021204600F06CFEF2
:10385000A8B9C6B116F8010B21684860E08C401E7B
:10386000E084E08C4B464FF00002CDF80080002849
:10387000EAD14FF04001204600F056FE40B184F8F6
:1038800041700320C3E735F8020BC0F30800E3E7FB
:1038900084F841700020BAE7FEE701684A69D24324
:1038A00052050FD46FF480624A61002140F8301F46
:1038B000202242738173026942F0040202610173A3
:1038C0000120704700207047F8B50446C06A1E46C4
:1038D0000D461746082807D0012805D010F5803F6F
:1038E00002D0206B122804D12068016841F4807155
:1038F0000160134600224FF001112046009600F0AF
:103900005DF840B120680068C00502D54FF4007032
:1039100020640320F8BD2069B0F5804F0ED006204A
:10392000216800EAD51040F0F000086133463A46BD
:103930000B49204600F08AF878B902E005F0FE0055
:1039400000E0E8B221680861054933463A46891F1C
:10395000204600F07BF80028DCD00120F8BD0000F4
:103960000800010070B516460D4604461EE02046CC
:10397000FFF793FF08B1012070BD681C16D0FEF759
:1039800035FD801BA84200D885B920684069C04336
:1039900040070BD5002044F8300F20216173A0733D
:1039A000216941F0200121612073E4E7206840692A
:1039B000C0434007DBD4002070BD00002DE9F04774
:1039C000984617460D460446C1F30746DDF8209099
:1039D0002AE000BFB8F1FF3F26D0FEF707FDA0EBBD
:1039E0000901414502D8B8F1000F1DD12068012E10
:1039F00016D0806925EA00000004000C12D00020D7
:103A0000B84211D1002044F8300F20216173A07317
:103A1000216941F02001216120730120BDE8F08778
:103A20004069E7E70120EBE72068012E0AD08069B2
:103A300025EA00000004000C06D00020B842C9D0DE
:103A40000020EBE74069F3E70120F7E72DE9F047B5
:103A5000984616460D4604464FF000094FF0200ADE
:103A6000C1F3074723E020684069C043400515D4EF
:103A70002068016841F40071016021686FF4806082
:103A80004861C4F8309084F83DA084F83E90216CE1
:103A900041F00401216484F83C9021E0701C06D0C0
:103AA000FEF7A4FCA0EB0800B04203D816B1012F2A
:103AB0001FD021E02068012F15D0806925EA000081
:103AC0000004000C18D000BF44F8309F84F80DA00B
:103AD00084F80E90216941F02001216184F80C9056
:103AE0000120BDE8F087406925EA00000004000CD1
:103AF000EAD12068406901E02068806925EA000079
:103B00000004000CAFD1ECE770B516460D46044634
:103B10001EE02046FFF7C1FE08B1012070BD681C01
:103B200016D0FEF763FC801BA84200D885B9206838
:103B30004069C04300060BD5002044F8300F202117
:103B40006173A073216941F0200121612073E4E7D2
:103B500020684069C0430006DBD4002070BD00002F
:103B60002DE9F041104F002407F1100807F1080576
:103B700005EB4406707805F8140037F8141058F86F
:103B80002400FEF721FC707015F8141009B9012803
:103B900006D0641CE4B2042CEAD30020BDE8F08116
:103BA000641CE0B2FAE700003400002010B5064CB7
:103BB0004FF480512046FEF70CFC61142046BDE80E
:103BC0001040FEF706BC0000000C014070B5064D29
:103BD000040002D42868446370BDFFF7E7FF29683A
:103BE0006042486370BD000034010020044805496C
:103BF000428802800968496A4180881A00B2704789
:103C0000640000207C01002010B5064C0122110345
:103C10002046FEF7E6FB002261142046BDE8104076
:103C2000FEF7DFBB000C01403EB5002111480091BA
:103C300001910F4A029102608160017301750124B4
:103C40004FF460220461C2614160FEF715F908B1CA
:103C5000FEF78EF80220CDE90004052002906946A7
:103C60000448FEF787F8002801D0FEF781F83EBD32
:103C700000280140680000202DE9F04385B00024B1
:103C800031480094019402940394816941F0100139
:103C90008161816901F010010491816941F0200185
:103CA0008161816901F020010491816941F0040181
:103CB0008161816901F004010491816941F0080189
:103CC00081618069012200F00800DFF880805503DF
:103CD000049029464046FEF784FBDFF874904FF4C9
:103CE0004057002239464846FEF77BFB00950226E6
:103CF00001250396CDE9015469464046FEF774FA62
:103D00003C2000900320DFF84C800190694640463B
:103D1000FEF76AFAB8108DE8310069464846FEF7AA
:103D200063FA00970396CDE9015469464846FEF7C9
:103D30005BFA78108DE8310069464046FEF754FA88
:103D400005B0BDE8F0830000001002400010014003
:103D5000000C0140000801400D4810B50B490160FE
:103D60000C49416000214FF480428160C0E9031298
:103D700041618161C1610162FEF73EFB002803D011
:103D8000BDE81040FDF7F4BF10BD00000054004036
:103D900098000020A086010010B586B000241748C6
:103DA00000940194029403940494134905940160CF
:103DB00040F2CF21C0E901146321C0E9031444613A
:103DC0008461FFF7C1F808B1FDF7D2FF4FF48050CE
:103DD000009069460948FFF739F908B1FDF7C8FFB7
:103DE000049404A905480594FFF77AF8002801D047
:103DF000FDF7BEFF06B010BD002C0140EC00002016
:103E000010B58EB000240794089409940A940B947A
:103E10001C2168460C94FCF7CEFB1E484FF08041F5
:103E2000016040F2CF21C0E901146321C0E903140D
:103E30008461FFF789F808B1FDF79AFF4FF48050CD
:103E4000079007A91348FFF701F908B1FDF790FFA4
:103E50001048FFF750FB08B1FDF78AFF0B940BA940
:103E60000C480C94FFF73CF808B1FDF781FF602087
:103E700000903220CDE901040022694605480494EF
:103E8000FFF7D3FA08B1FDF773FF0248FFF7A8FA6E
:103E90000EB010BD3401002010B58CB0242168464E
:103EA000FCF789FB00241648099414490A94C0E9D8
:103EB00000144FF6FF71C0E9024180210461816165
:103EC0000320CDE900040120CDE902040494CDE9EA
:103ED0000540079469460A480894FFF725F908B198
:103EE000FDF746FF099409A905480A94FEF7F8FF73
:103EF000002801D0FDF73CFF0CB010BD00040040CD
:103F00007C0100200C4810B50A4901604FF4E131F2
:103F10004160002181600C22C160C0E9041281610E
:103F2000C161FFF7FEFB002803D0BDE81040FDF79C
:103F30001FBF10BD00380140C4010020FEE7FEE7AE
:103F400070B5A2B00B4D00246E460021204600F053
:103F50005DF87D21301DFCF72EFB68680090812103
:103F6000684600F045F8641CE4B2082CEDD322B09A
:103F700070BD0000044E000870B5A8B018220FA153
:103F800021A8FCF7E6FA182121A800F031F8114D1C
:103F900000246E460021204600F038F87D21301DB7
:103FA000FCF709FB286800908121684600F020F8A2
:103FB000641CE4B2082CEDD328B070BD00AED580EF
:103FC000A83FD30040A1C8DA1281CFD9F1DB30A4D9
:103FD000A68D14AF044E000808B504A002210068A5
:103FE0000090684600F004F808BD000000A700003B
:103FF00008B54FF0FF3200920B4602467821024886
:10400000FEF7BEFA08BD00009800002008B50022A7
:10401000009201F00F028DF80120102242EA1111E6
:104020008DF8021040F0B0008DF8030004216846BE
:10403000FFF7DEFF08BD000038B51546FFF7E6FFC5
:104040000B4905EB4500002401EB400509A00221C6
:1040500000680090281910F8C00C8DF8010068461F
:10406000FFF7C6FF641CE4B2062CEFD338BD000096
:104070000C4E00084000000030B5054689B00C46E3
:10408000104600F04DFD02460B4605A16846FCF7C0
:1040900003F96A462146284600F006F809B030BD0B
:1040A0002530342E32660000F8B51646FFF7AEFF15
:1040B00000250F4F17E000240EA002210068009099
:1040C000705D00EB400007EB4000204410F8C00C8E
:1040D0008DF801006846FFF78BFF641CE4B2062CE4
:1040E000EAD36D1CADB2705D0028E4D1F8BD0000CC
:1040F0000C4E0008400000000FB430B5A1B00C46D3
:10410000054627AA68462699FCF7B4F86A46214670
:104110002846FFF7C9FF21B030BC5DF814FB70479B
:10412000704700000FB400B5A1B023AA68462299D9
:10413000FCF7A0F86846FCF7EDF982B24FF0FF33C8
:1041400069460348FFF758FB21B05DF814FB0000F7
:10415000C4010020FEF7E2BA30B593B028216846CA
:10416000FCF729FA14210AA8FCF725FA00250120FA
:104170000F9510951195010412958DE82300049078
:104180004FF4E010CDE90810022407946846FEF7CA
:1041900001FD08B172B6FEE70AA90F2081E83100DF
:1041A0004FF48060CDE90D0502210AA8FEF716FC48
:1041B00008B172B6FEE74FF4004011900F940FA8BB
:1041C000FEF796FB002801D072B6FEE713B030BDB3
:1041D000704700000148FFF76BB80000EC000020BA
:1041E000F0B50268194B1A4C1A4D4FF080479842AF
:1041F00005D0B84203D0A04201D0A84203D122F09A
:1042000070064A683243984205D0B84203D0A042B3
:1042100001D0A84203D122F44074CA6822434C69F9
:1042200022F08002224302608A68C2620A688262C7
:10423000984201D109690163012141610169C907FE
:1042400003D0016921F001010161F0BD002C0140A2
:10425000000400400008004010B501F01F030121D8
:10426000046A99408C430462016A9A4011430162D6
:1042700010BD10B5846842EA032224F47F440A4347
:104280002243826010BD826822F070020A4342F02D
:10429000070181607047000030B5036A026A22F0AE
:1042A000010202624268846924F073050C682C43A1
:1042B00023F002058B682B430A4DA8420BD123F053
:1042C0000805CB6822F440722B434D6923F00403A8
:1042D00015438A692A4342608461496841630362E5
:1042E00030BD0000002C014030B5026A036A23F0A3
:1042F00010030362436884690D6824F4E64444EAC9
:1043000005248D6822F0200242EA05120B4DA842D6
:104310000ED1CD6822F0800242EA05124D6923F4E5
:10432000406343EA85038D6922F0400243EA850336
:104330004360846149688163026230BD002C0140A2
:1043400030B5036A026A22F4807202624268C4696C
:1043500023F4007324F073050C682C438D6843EA42
:1043600005230C4DA8420ED1CD6823F4006343EA27
:1043700005234D6922F4405242EA05128D6923F467
:10438000806342EA05124260C4614968C163036206
:1043900030BD0000002C014030B5046A026A22F4EE
:1043A000805202624268C3690D6823F4E64343EA1F
:1043B00005238D6824F4005444EA0534064DA842D0
:1043C00004D14D6922F4804242EA85124260C36101
:1043D00049680164046230BD002C014010B5036AD5
:1043E000046A24F001040462846924F0F00444EABD
:1043F000021423F00A020A438461026210BD10B560
:10440000036A046A24F010040462846923F0A003A0
:1044100024F4704444EA023243EA011182610162E9
:1044200010BD01680C3151E8002F22F4907241E870
:104430000023002BF5D10168143151E8002F22F040
:10444000010241E80023002BF5D1016B012909D1BC
:1044500001680C3151E8002F22F0100241E80023DE
:10446000002BF5D1202180F8421000210163704714
:1044700070B5044600680169E26821F440511143B7
:1044800001612169A0680843616908432168CA681D
:1044900041F20C639A430243CA6020684169A269F1
:1044A00021F44071114341611E492068884202D1C4
:1044B000FEF73AFB01E0FEF727FB00EBC00101EB42
:1044C0000012606864218000B2FBF0F3B3FBF1F3EB
:1044D0006FF018067343B2FBF0F5B2FBF0F605EB94
:1044E0008305322303EB0515B5FBF1F5B6FBF1F6B9
:1044F00005F0F00505EB0615B2FBF0F6B2FBF0F0A7
:10450000B0FBF1F06FF01802504306EB800003EBB4
:104510000010B0FBF1F0216800F00F002844886023
:1045200070BD0000003801402DE9F8439846174659
:104530000D460446089E24E0701C22D0FDF756FF6D
:10454000A0EB0800B0421AD8CEB12068C168490774
:1045500017D5802D15D0402D13D00168C943090708
:104560000FD401680025406800902046FFF759FFEE
:104570000820606484F840500120BDE8F8830320DF
:10458000FBE72068006835EA000004D00020B8424C
:10459000D2D00020F1E70120F9E7FEE7490050EA18
:1045A000C12018BF04204A0D18BF40F0010040F29E
:1045B000FF72B2EB515F08BF40F00200012808BF54
:1045C000052070470907090E002804DB00F1E020F0
:1045D00080F80014704700F00F0000F1E02080F830
:1045E000141D704730380A2801D20120704700207E
:1045F00070470000FEF79AF8FFF7AEFDFFF73CFBAF
:10460000FFF7AAFBFFF7C8FBFFF70EFBFFF7F8FB6E
:10461000FFF742FCFFF776FCFFF7AEFC1E48FEF703
:10462000E9FC00211D48FEF795FF3C211C48FEF7E0
:10463000F7FDFFF7D1FCFFF783FC002119A2084624
:10464000FFF732FD19A200210120FFF72DFD19A26D
:1046500000210220FFF728FD18A200210320FFF708
:1046600023FD18A200210420FFF71EFD17A2002140
:104670000520FFF719FD17A200210620FFF714FD02
:1046800016A200210720FFF70FFDFFF7BDFA6FF01C
:104690000900FFF79BFAFEE7EC0000203401002040
:1046A0007C0100204B65794E756D3A004B70203AC5
:1046B000000000004B69203A000000004B64203AE3
:1046C00000000000457272496E743A005265616CD8
:1046D000203A000057616E743A0000004F75743A3A
:1046E0000000000010B500290AD00878002807D083
:1046F00005487844FCF77EFE002801D0002010BD5C
:104700000248784410BD0000720A00006A0A0000E6
:1047100010B500290AD00878002807D00548784449
:10472000FCF768FE002801D0002010BD0248784444
:1047300010BD0000620A00005A0A000021F0004289
:10474000A2F16052B2F5801F01F0004328BFD2F100
:104750007F6C0BD95FEA001C43EAC20242EB507047
:1047600018BF704728BF20F001007047B2F5801FC6
:10477000BCBF184670474FEA410C1CF5001F02D21F
:10478000084600F0A1BA70B500F075F90000008984
:10479000FFF7F6BF4FF00040A0F580007047000023
:1047A0002DE9C04130B4DFF8A0C23CEA111418BFB3
:1047B0003CEA131400F0EC8081EA03051CEA1114B2
:1047C00044EAD57418BF1CEA131500F0C780A4EBA7
:1047D00005044FF0004545EAC12145EAC32341EAFB
:1047E000505143EA525304F17F74994204F5003466
:1047F0004FEAC0204FEAC22208BF904200F09C80DE
:104800004FEA13650FF24016765D4FEA134506FB3B
:1048100005F7C7F1807706FB07F74FEAD737A7FB05
:1048200003687642C8F58038A7FB06CE38BFA8F1EA
:10483000010807FB08E64FF0000EA6FB028CE6FB22
:1048400003CEDCF1000CCEF1004E38BFAEF1010E0C
:10485000A6FB0C584FF000074FF00005E6FB0E8753
:10486000A1FB08C6A0FB07CE16EB0E0645F100051E
:10487000E1FB076515F1E04E7EBFA4F580345FEAE9
:1048800046066D4116F1800745F100054FEA1727EE
:104890004FEA066647EA0567A6F1DE46B6F1805F95
:1048A0004FEA15251FD9384624F0010C05EBC471D9
:1048B000BCF1FE6F01EB0C1102D8F0BCBDE8008129
:1048C00024425CBF01F5801E9EEAC47F02D4F0BC86
:1048D000BDE80081244238D4F0BCA1F1C041BDE85C
:1048E000004100F016B94FEAD22242EA43524FEAA1
:1048F000D323A7FB02864FEAD02040EA415007FBB2
:1049000003661EEA0E0F4FEAD12105FB026658BF6F
:10491000A6EB0056B6EB00564FEA520E4EEAC37EA7
:1049200018EB0E0E56EB530EBDD518EB02085E4188
:104930007F1C55F10005B6E74FF480154FF00007D6
:104940004FF000064FF00008ADE7F0BC4FF000005C
:1049500001F1C04101F00041BDE8008111EA0C1FE6
:104960000CEA131500D00CE013EA0C1F00F02580B0
:104970004FF00000F0BC81EA030101F00041BDE806
:104980000081F0BCBDE8004181EA030100F0C1B83C
:10499000F0BCBDE8004170B500F06DF8097EFC3E4A
:1049A00000F007B881EA03014FF0000001F0004178
:1049B000704781EA030100F0ACB8F0BCBDE80041EB
:1049C0004FF0000021497047FFFDFBF9F7F5F4F2C5
:1049D000F0EEEDEBE9E8E6E4E3E1E0DEDDDBDAD89A
:1049E000D7D5D4D3D1D0CFCDCCCBCAC8C7C6C5C4F8
:1049F000C2C1C0BFBEBDBCBBBAB9B8B7B6B5B4B30F
:104A0000B2B1B0AFAEADACABAAA9A8A8A7A6A5A4F9
:104A1000A3A3A2A1A09F9F9E9D9C9C9B9A999998BD
:104A20009797969595949393929191908F8F8E8E60
:104A30008D8C8C8B8B8A89898888878786858584ED
:104A400084838382828181800000FF070000F87FD9
:104A5000B0FA80F310FA03F10AD0C3F11D0303F595
:104A600080634FEA41504FEA035202EBD121704775
:104A70004FF0000070470EF1020E2EF0030E5EF8AC
:104A8000046B364205D4012A43EB030515F5001FDC
:104A900012D8012841EB010C1CF5001F0CD80ED1D7
:104AA0004FEAD17C15F5001F0CEB4C0C0CF1020CFD
:104AB00008BF4CEBD37C04E04FF0080C01E04FEA58
:104AC000D37C0CEB4C0526FA05F606F00706B6F18A
:104AD000040C06D20EEB860CBDE870404CF0010CC5
:104AE0006047DFE80CF0090B02024FF000414FF085
:104AF0000000A1F5002170BD19461046012851EBB8
:104B0000010418BFD4F5001484BF002001F0004157
:104B100070BD0808A0F500114FEA31017047000090
:104B200043004FEAD30C4FEA3C0C43401FBF400701
:104B30000CF1605113F0FE4F70471CF0006F03D171
:104B400000200CF0004170470CF0004343EA507025
:104B500010B540EACC0000F071F800BF00000092F0
:104B60004FEA0001FFF7D5BF4FF000414FF00000C2
:104B7000A1F500217047000090EA010F48BF81F0C5
:104B8000004100F1AE80421A3CBF801A89184FEAFA
:104B9000D0524FF07F4C1CEA410FA2EBD15318BF0B
:104BA0009CEA026F00F03B804FF0004C4CEA002082
:104BB0004CEA012121FA03FC10EB0C0C1ED202F18D
:104BC000FF325FEA1C2040EBC25038BF70471CF038
:104BD0007F0F4FEA400C18BFBCF17F4F38BF7047C2
:104BE000C3F12003994008BF20F00100BCF17F4FC2
:104BF00038BF7047A0F1C04000F066B84FEA3C00F3
:104C0000000A40EBC25028BF1CF0FF0F4FEA400CD7
:104C1000E6D018BFBCF17F4F38BF7047EAE79CEA87
:104C2000026F05D010EA5C0F08BF00F0004070472B
:104C300010B500F003F800BF64FBBE3E0EF1020E9B
:104C40002EF0030E5EF8044B244204D44FEA4102D6
:104C5000B2F17F4F11D84FEA4003B3F17F4F0CD828
:104C60000ED14FEAD07CB2F17F4F0CEB4C0C0CF123
:104C7000020C08BF4CEBD17C04E04FF0080C01E0C3
:104C80004FEAD17C0CEB4C0324FA03F404F0070444
:104C9000B4F1040C06D20EEB840CBDE810404CF0CD
:104CA000010C6047DFE80CF0070802024FF00040FB
:104CB000A0F5800010BD0846420018BFD2F18072F6
:104CC00088BF00F0004010BDFF2141EAD050C00570
:104CD0007047000090EA010F48BF81F000413FF5A6
:104CE00052AF421A04D882F00042A0EB02001144F5
:104CF0004FEAD0524FF07F4C1CEA410FA2EBD15348
:104D000018BF9CEA026F4AD04FF0004C4CEA0020DA
:104D10004CEA012121FA03FCB0EB0C0C0FD412F089
:104D2000FE0F36D05FEA4C001DD5001240EBC2509A
:104D300038BF70471CF03F0F18BF70470BE0A2F15F
:104D400001025FEA1C2040EBC25038BF70471CF0E4
:104D50007F0F18BF7047C3F12003994014BF401E56
:104D600020F00100704780084FEA122308BF704707
:104D7000B0FA80FCA2EB0C02CCF1280C60FA0CF02B
:104D800093EA122F04BF00EBC25070474FEAC37082
:104D90007047130A5FEADC1008BF7047F6E79CEA29
:104DA000026F04D010EA5C0F08BF0020704710B5F6
:104DB000FFF744FF40DFF63E81F000407047FBF70D
:104DC000A5BDFCF75FB80102020304050607080948
:104DD0000A0B0C0D0E0F101001020203040506074A
:104DE00008090A0B0C0D0E0F101000000000000047
:104DF0000000010203040607080900000000010288
:104E0000030400004000000040000000000000001B
:104E100000000000002F0000000007000700001441
:104E20007F147F1400242A7F2A120023130864624F
:104E300000364955225000000007000000001C22E7
:104E40004100000041221C000014083E0814000824
:104E5000083E0808000000A06000000808080808D4
:104E6000000060600000002010080402003E51496C
:104E7000453E0000427F400000426151494600210A
:104E800041454B31001814127F1000274545453924
:104E9000003C4A494930000171090503003649497F
:104EA000493600064949291E000036360000000038
:104EB0005636000000081422410000141414141483
:104EC000000041221408000201510906003E495524
:104ED000592E007C1211127C007F49494936003E50
:104EE00041414122007F4141221C007F4949494103
:104EF000007F09090901003E4149497A007F0808FD
:104F0000087F0000417F4100002040413F01007FB9
:104F100008142241007F40404040007F020C027F85
:104F2000007F0408107F003E4141413E007F090997
:104F30000906003E4151215E007F091929460046BD
:104F4000494949310001017F0101003F4040403F94
:104F5000001F2040201F003F4038403F00631408DE
:104F600014630007087008070061514945430000B9
:104F70007F414100000204081020000041417F00F1
:104F800000040201020400404040404000000102D1
:104F90000400002054545478007F484444380038BA
:104FA0004444442000384444487F00385454541842
:104FB00000087E0901020018A4A4A47C007F080454
:104FC00004780000447D4000004080847D00007F24
:104FD000102844000000417F4000007C0418047841
:104FE000007C0804047800384444443800FC24243D
:104FF00024180018242418FC007C08040408004825
:105000005454542000043F444020003C4040207C45
:10501000001C2040201C003C4030403C0044281034
:105020002844001CA0A0A07C004464544C44000010
:10503000087F41000000007F00000000417F080061
:105040000008040810080400000800000000000028
:10505000000200010000100000000000000000003D
:10506000303132333435363738394142434445469E
:105070004030580030313233343536373839616298
:10508000636465664030780030313233343536370A
:105090003839616263646566787000303132333468
:1050A00035363738394142434445465850000000B0
:1050B00002400000000000A00000000005400000C9
:1050C000000000C8000000000C4000000000409CF0
:1050D00000000000194000000020BCBE00000000DD
:1050E00034400000BFC91B8E00000004B540000022
:1050F000504BCFD06607E2CF010000006C410000AA
:105100003E8251AADFEEA73401000000D942000020
:10511000DCB5A0E23A301F97FFFFFFFFB445000067
:10512000FD25A0C8E9A3C14FFFFFFFFFFF3F00001F
:105130000000008000000000FF3F00000000008031
:1051400000000000905200080000002068000000ED
:1051500028010008F8520008680000201808000024
:10516000440100081C00000043000000F8FFFFFF9E
:105170000C0000000E0000000F0000002E000000D8
:105180001001000043000000F8FFFFFF0040404016
:10519000404040404040414141414140404040400A
:1051A00040404040404040404040404040050202B6
:1051B0000202020202020202020202020220202075
:1051C00020202020202020020202020202029090D1
:1051D00090909090101010101010101010101010CF
:1051E0001010101010101010020202020202888823
:1051F000888888880808080808080808080808082F
:105200000808080808080808020202024000000016
:10521000000000000000000000000000000000008E
:10522000000000000000000000000000000000007E
:10523000000000000000000000000000000000006E
:10524000000000000000000000000000000000005E
:10525000000000000000000000000000000000004E
:10526000000000000000000000000000000000003E
:10527000000000000000000000000000000000002E
:10528000000000000000000000000000000000001E
:105290000000000000000000CDCCCC3D000000006C
:1052A00000000000000000000000000000000000FE
:1052B00000000000010000001000000000000000DD
:1052C00000127A000004000800080010000000002E
:1052D00000000000000C0140000C014000080140EB
:1052E000000801400200000003000000040000006C
:0852F0000500000000000000B1
:04000005080000ED02
:00000001FF
